:04000000EAEF04F02F
:060008004F8263ED12F0CF
:100018004F80D8CF34F0E8CF35F0E0CF36F0E1CFDD
:1000280037F0E2CF38F0D9CF39F0DACF3AF0F6CF5F
:100038003BF0F7CF3CF0F8CF3DF0F5CF3EF0F2A023
:1000480028EF00F02AEF00F0D2EF04F0F00E81184C
:10005800D8B431EF00F033EF00F0ADEF04F0000159
:10006800B805B911D8A43BEF00F03DEF00F045EF1B
:1000780000F0000EBB6F010EBA6F000EB96F000ED4
:10008800B86F000E426E000E416E000EBD6F000E7E
:10009800BC6F000E4D6EFE0E8A6E81B856EF00F0F2
:1000A80058EF00F05CEF00F0010E4D6E07EF01F025
:1000B80081BA61EF00F063EF00F067EF00F0020E25
:1000C8004D6E07EF01F081BC6CEF00F06EEF00F0B1
:1000D80072EF00F0030E4D6E07EF01F081BE77EF6F
:1000E80000F079EF00F07DEF00F0040E4D6E07EFA1
:1000F80001F0FD0E8A6E81B884EF00F086EF00F003
:100108008AEF00F0050E4D6E07EF01F081BA8FEF10
:1001180000F091EF00F095EF00F0060E4D6E07EF3E
:1001280001F081BC9AEF00F09CEF00F0A0EF00F026
:10013800070E4D6E07EF01F081BEA5EF00F0A7EFA7
:1001480000F0ABEF00F0080E4D6E07EF01F0FB0E6C
:100158008A6E81B8B2EF00F0B4EF00F0B8EF00F0AB
:10016800090E4D6E07EF01F081BABDEF00F0BFEF49
:1001780000F0C3EF00F00A0E4D6E07EF01F081BCEE
:10018800C8EF00F0CAEF00F0CEEF00F00B0E4D6E96
:1001980007EF01F081BED3EF00F0D5EF00F0D9EF03
:1001A80000F00C0E4D6E07EF01F0F70E8A6E81B865
:1001B800E0EF00F0E2EF00F0E6EF00F00D0E4D6E1C
:1001C80007EF01F081BAEBEF00F0EDEF00F0F1EF8F
:1001D80000F00E0E4D6E07EF01F081BCF6EF00F057
:1001E800F8EF00F0FCEF00F00F0E4D6E07EF01F096
:1001F80081BE01EF01F003EF01F007EF01F0100EEF
:100208004D6E07EF01F043504410D8A40EEF01F0F3
:1002180010EF01F05FEF04F01CEF04F0BA05BB111A
:10022800D8A419EF01F01BEF01F05FEF04F0000E06
:10023800E36F010EE26F000EB96F000EB86F000E8B
:10024800486E000E476E000E466E000E456E000E9C
:10025800446E000E436E5FEF04F0BA05BB11D8A4DC
:1002680038EF01F03AEF01F05FEF04F0000EE36FB2
:10027800020EE26F000EB96F000EB86F000E466EE8
:10028800000E456E000E446E000E436E5FEF04F0E4
:10029800BA05BB11D8A453EF01F055EF01F05FEF99
:1002A80004F0000EE36F030EE26F000EB96F000E4C
:1002B800B86F000E486E000E476E000E466E000EB8
:1002C800456E000E446E000E436E5FEF04F0BA05F3
:1002D800BB11D8A472EF01F074EF01F05FEF04F0E6
:1002E800000EE36F040EE26F000EB96F000EB86FD8
:1002F800000E486E000E476E000E466E000E456EEC
:10030800000E446E000E436E5FEF04F0BA05BB1199
:10031800D8A491EF01F093EF01F05FEF04F0000E25
:10032800E36F050EE26F000EB96F000EB86F000E96
:10033800486E000E476E000E466E000E456E000EAB
:10034800446E000E436E5FEF04F0BA05BB11D8A4EB
:10035800B0EF01F0B2EF01F05FEF04F0000EE36FD1
:10036800060EE26F000EB96F000EB86F000E486EF1
:10037800000E476E000E466E000E456E000E446E6F
:10038800000E436E5FEF04F0BA05BB11D8A4CFEF9F
:1003980001F0D1EF01F05FEF04F0000EE36F070EFC
:1003A800E26F000EB96F000EB86F000E486E000EB7
:1003B800476E000E466E000E456E000E446E000E2F
:1003C800436E5FEF04F0BA05BB11D8A4EEEF01F05D
:1003D800F0EF01F05FEF04F0000EE36F080EE26F3C
:1003E800000EB96F000EB86F000E486E000E476E13
:1003F800000E466E000E456E000E446E000E436EF3
:100408005FEF04F0BA05BB11D8A40DEF02F00FEFAF
:1004180002F05FEF04F0000EE36F090EE26F000ECA
:10042800B96F000EB86F000E486E000E476E000ED2
:10043800466E000E456E000E446E000E436E5FEF72
:1004480004F0BA05BB11D8A42CEF02F02EEF02F08D
:100458005FEF04F0000EE36F000EE26F000EB96F5D
:10046800000EB86F000E486E000E476E000E466E06
:10047800000E456E000E446E000E436E5FEF04F0F2
:1004880049044A10D8A44BEF02F04DEF02F05FEF99
:1004980004F00C0E056E020EEEEC0DF02C0E066E3E
:1004A8007F0E076E0EEC11F00D0E056E020EEEECCF
:1004B8000DF02C0E066E7F0E076E0EEC11F00C0E72
:1004C800056E020EEEEC0DF072EC13F0000E00015A
:1004D800B56F000EB46F000EB36F000EB26F000E52
:1004E800B96F010EB86F000E486E000E476E000E11
:1004F800466E000E456E000E446E000E436E5FEFB2
:1005080004F03F044010D8A48CEF02F08EEF02F004
:1005180079EF03F0BE05BF11D8A495EF02F097EF6D
:1005280002F021EF03F0B5BFA2EF02F0B55108E1E8
:10053800B405D8A0A2EF02F0A4EF02F0C6EF02F0D3
:10054800B5BFB2EF02F0B55107E13C0EB45DD8B0CB
:10055800B0EF02F0B2EF02F0C6EF02F0B4C0E0F084
:10056800B5C0E1F0000EBB6F000EBA6F000EB76F9A
:10057800010EB66F000E406E000E3F6EBE4BBF2BD5
:100588006DEF03F06BEC13F0010E056E010EEEEC4F
:100598000DF0780E066E7F0E076E0EEC11F0010E50
:1005A800056E020EEEEC0DF0EE0E066E7F0E076E77
:1005B8000EEC11F0150E336E4B0E326EBE0EE82E99
:1005C800FED7322EFCD7332EFAD700D0000E00010A
:1005D800BD6F000EBC6F000EBB6F000EBA6F000E31
:1005E8004C6E000E4B6E000EB96F000EB86F000E09
:1005F8004A6E000E496E000EB76F000EB66F000E01
:10060800B56F000EB46F000EB36F000EB26F000E20
:10061800B16F000EB06F000EAF6F000EAE6F000E20
:10062800AD6F000EAC6F000E406E000E3F6E000EF8
:10063800BF6F010EBE6F6DEF03F0030EBE19BF1141
:10064800D8A429EF03F02BEF03F06DEF03F0000EB1
:10065800406E000E3F6E000EBD6F000EBC6F000EA8
:10066800BB6F000EBA6F000E4C6E000E4B6E000E84
:10067800B96F000EB86F000E4A6E000E496E000E7C
:10068800B76F000EB66F000EB56F000EB46F000E98
:10069800B36F000EB26F000EB16F000EB06F000E98
:1006A800AF6F000EAE6F000EAD6F000EAC6F000E98
:1006B800BF6F010EBE6F000EE76F000EE66F000EF3
:1006C800E56F000EE46F070E8D6E8C908C928C9403
:1006D8008C96000E486E000E476E000E466E000E99
:1006E800456E000E446E000E436E000E426E010E03
:1006F800416E5FEF04F0000EE76F000EE66F000E2C
:10070800E56F000EE46F070E8D6E8C908C928C94C2
:100718008C96B4C0E0F0B5C0E1F0000E466E010E54
:10072800456E000E446E000E436E5FEF04F0020E3D
:10073800BE19BF11D8A4A3EF03F0A5EF03F05FEF34
:1007480004F06BEC13F0010E056E010EEEEC0DF0EB
:10075800DA0E066E7F0E076E0EEC11F0010E056EB6
:10076800020EEEEC0DF0D00E066E7F0E076E0EEC4C
:1007780011F0000E446E010E436E5FEF04F0000EA0
:10078800BD6F000EBC6F000EBB6F000EBA6F000E7F
:100798004C6E000E4B6E000EB96F000EB86F000E57
:1007A8004A6E000E496E000EB76F000EB66F000E4F
:1007B800B56F000EB46F000EB36F000EB26F000E6F
:1007C800B16F000EB06F000EAF6F000EAE6F000E6F
:1007D800AD6F000EAC6F000EBF6F010EBE6F000E46
:1007E800E76F000EE66F000EE56F000EE46F070E70
:1007F8008D6E8C908C928C948C965FEF04F0000E2A
:10080800486E010E476E89B60CEF04F00FEF04F046
:10081800010E10EF04F0000EFF0A326E3246324627
:10082800324689503218F70B3218896E5FEF04F0A0
:100838004D50010AD8B412EF01F0030AD8B431EFD1
:1008480001F0010AD8B44CEF01F0070AD8B485EFDB
:1008580002F0010AD8B46BEF01F0030AD8B48AEFAA
:1008680001F0010AD8B4A9EF01F00F0AD8B444EF97
:1008780002F0010AD8B4C8EF01F0030AD8B4E7EFD0
:1008880001F0010AD8B406EF02F0070AD8B47FEFE6
:1008980003F0010AD8B49BEF03F0030AD8B425EF9C
:1008A80002F0010AD8B4C3EF03F01F0AD8B403EF6B
:1008B80004F0D2EF04F00001BA05BB11D8A467EF29
:1008C80004F069EF04F09FEF04F0B851B911D8A40F
:1008D80070EF04F072EF04F09FEF04F047504810F7
:1008E800D8A479EF04F07BEF04F09FEF04F04550B3
:1008F8004610D8A482EF04F084EF04F09FEF04F0D0
:1009080041504210D8A48BEF04F08DEF04F09FEF14
:1009180004F0D60E1F6E206A6D0E216E7F0E226EB9
:10092800E2C023F0E3C024F043EC12F0000E000113
:10093800BD6F010EBC6FF00E8A6E020E336E040E90
:10094800326EBA0EE82EFED7322EFCD7332EFAD7E7
:1009580000D043044410D8A4B4EF04F0B6EF04F078
:10096800D1EF04F0F280000E0001BB6F000EBA6FE9
:10097800000EB96F000EB86F000E486E000E476E7D
:10098800000E466E000E456E060E8D6E8986000EB0
:10099800B76F000EB66FD2EF04F0F2903EC0F5FFCD
:1009A8003DC0F8FF3CC0F7FF3BC0F6FF3AC0DAFF96
:1009B80039C0D9FF38C0E2FF37C0E1FF36C0E0FFD9
:1009C80035C0E8FF34C0D8FF4F9010004DEF11F04C
:1009D80088EC10F0F00E936EF00E8A6E000E956E95
:1009E800000E966E9482000E926E0F0EC112F28E59
:1009F800F28CD08E700ED312D350FC0B0209D36E3A
:100A0800F286F190F290070E8D6E8C908C928C94F9
:100A18008C961AEC13F040EF07F0898661EC07F02A
:100A28000001BE4BBF2B000EBB6F000EBA6F0DEF5F
:100A380005F0B1BF2AEF05F0B15106E1B005D8B015
:100A480028EF05F02AEF05F08CEF05F0010E636F33
:100A5800010E7FEC0DF07F0E0001646F7F0E656F55
:100A6800CCEC10F0010E0001636F020E7FEC0DF06C
:100A7800500E0001646F7F0E656FCCEC10F0150E00
:100A88000001916F4B0E906FBE0EE82EFED7902F8F
:100A9800FCD7912FFAD7000048EC13F0010E0001A3
:100AA800636F010E7FEC0DF0020E0001916F040ED2
:100AB800906FBA0EE82EFED7902FFCD7912FFAD759
:100AC8000000010E0001636F010E7FEC0DF0700E47
:100AD8000001646F7F0E656FCCEC10F0010E000111
:100AE800636F020E7FEC0DF0B80E0001646F7F0E8D
:100AF800656FCCEC10F064EC13F0000E0001BB6FD6
:100B0800010EBA6F000E4A6E010E496EB04BB12B42
:100B1800BA51BB11D8B493EF05F095EF05F00DEF7E
:100B280005F0BC51BD11D8B49CEF05F09EEF05F05F
:100B38000DEF05F0B3BFACEF05F0B35107E1020EBE
:100B4800B25DD8B0AAEF05F0ACEF05F00DEF05F0F7
:100B5800F4EF05F0B851B911D8A4B5EF05F0B7EF27
:100B680005F00AEF06F00C0E636F020E7FEC0DF035
:100B7800D60E0001646F656BCCEC10F0E2C060F03B
:100B8800E3C061F0000E0001636F0A0E626FF3ECC0
:100B980012F060C0B4F061C0B5F00001B24BB32BE5
:100BA8000AEF06F00D0E636F020E7FEC0DF0D60E05
:100BB8000001646F656BCCEC10F05DEC13F0000184
:100BC800E251B425B46FE351B521B56F000EBB6F88
:100BD800000EBA6F000E406E010E3F6ED1EF05F0A9
:100BE800B2C090F0B3C091F09151000AD8B4FFEFB1
:100BF80005F00AEF06F09051000AD8B4AEEF05F000
:100C0800010AD8B4D6EF05F00AEF06F0000EBD6F62
:100C1800000EBC6F0DEF05F0000E4A6E000E496E17
:100C2800000E406E000E3F6EAFBF25EF06F0AF51CD
:100C380006E1AE05D8B023EF06F025EF06F064EF25
:100C480006F048EC13F0000E0001A76F030EA66F24
:100C5800920E7D6F7E6B600E7F6F7F0E806FA6C0D9
:100C680081F0A7C082F000EC12F048EC13F0010EFE
:100C78000001636F010E7FEC0DF0920E0001646FAE
:100C8800656BCCEC10F00B0E0001916F260E906F87
:100C98005D0EE82EFED7902FFCD7912FFAD700D003
:100CA8000001A607D8A0A707A7BF5FEF06F05DEF72
:100CB80006F02CEF06F048EC13F00001AE4BAF2B1A
:100CC800B6C060F0B7C061F0E60E626FE40E636F05
:100CD800E00E646FE0EC0CF00001AC51E01909E1A2
:100CE800AD51E119D8B47BEF06F07DEF06F00DEFBA
:100CF80005F048EC13F0200E00017D6F010E7E6FA9
:100D0800C40E7F6F7F0E806FE4C060F0E5C061F0B5
:100D1800000E636F0A0E626FF3EC12F00001E651E9
:100D28006025816FE7516121826F00EC12F0C20EDD
:100D380000017D6F7E6BAB0E7F6F7F0E806FE0C012
:100D480081F0E1C082F000EC12F0010E0001636F47
:100D5800010E7FEC0DF0200E0001646F010E656F2F
:100D6800CCEC10F0010E0001636F020E7FEC0DF069
:100D7800C20E0001646F656BCCEC10F00001E0510D
:100D8800E111D8A4CAEF06F0CCEF06F0D5EF06F0D3
:100D980048EC13F0000E0001AF6F000EAE6FBE4BB3
:100DA800BF2BE0C0ACF0E1C0ADF00DEF05F0AFBF78
:100DB800E8EF06F0AF5106E1AE05D8B0E6EF06F071
:100DC800E8EF06F00DEF05F0010E636F010E7FEC02
:100DD8000DF0F70E0001646F7F0E656FCCEC10F01C
:100DE800010E0001636F020E7FEC0DF0E40E0001AE
:100DF800646F7F0E656FCCEC10F0150E0001916FDB
:100E08004B0E906FBE0EE82EFED7902FFCD7912F79
:100E1800FAD7000048EC13F0020E0001916F040E9F
:100E2800906FBA0EE82EFED7902FFCD7912FFAD7E5
:100E38000000010E0001636F010E7FEC0DF09D0EA6
:100E48000001646F7F0E656FCCEC10F0010E00019D
:100E5800636F020E7FEC0DF08E0E0001646F7F0E43
:100E6800656FCCEC10F0000E406E010E3F6E000175
:100E7800AE4BAF2B0DEF05F0BEC090F0BFC091F0A8
:100E880000019151000AD8B44CEF07F00DEF05F0BE
:100E98009051000AD8B411EF05F0010AD8B41DEF3B
:100EA80005F0030AD8B410EF06F0010AD8B4DBEF56
:100EB80006F00DEF05F0EAEF04F088EC10F04FECC7
:100EC80013F0150E0001646F7F0E656F000EC7ECFE
:100ED80009F00D0E0001646F7F0E656F010EC7ECFF
:100EE80009F0050E0001646F7F0E656F020EC7ECF6
:100EF80009F0FD0E0001646F7E0E656F030EC7ECEE
:100F080009F0F50E0001646F7E0E656F040EC7ECE4
:100F180009F0ED0E0001646F7E0E656F050EC7ECDB
:100F280009F0E50E0001646F7E0E656F060EC7ECD2
:100F380009F0DD0E0001646F7E0E656F070EC7ECC9
:100F480009F056EC13F048EC13F0010E0001636F42
:100F5800010E7FEC0DF03F0E0001646F7F0E656F90
:100F6800CCEC10F01F0E0001746F710E736F1E0E23
:100F7800E82EFED7732FFCD7742FFAD70000000E87
:100F88000001756F41EC13F0040E0001746F0C0E34
:100F9800736F330EE82EFED7732FFCD7742FFAD752
:100FA80000D00001752B0F0E7565DDEF07F0DFEF40
:100FB80007F0C6EF07F0000E766F3AEC13F0040E58
:100FC8000001746F0C0E736F330EE82EFED7732F6B
:100FD800FCD7742FFAD700D00001762B0F0E766558
:100FE800F8EF07F0FAEF07F0E1EF07F048EC13F03D
:100FF800010E0001636F010E7FEC0DF01D0E000164
:10100800646F7F0E656FCCEC10F0010E0001636F0A
:10101800020E7FEC0DF02E0E0001646F7F0E656FDF
:10102800CCEC10F01F0E0001746F710E736F1E0E62
:10103800E82EFED7732FFCD7742FFAD70000010EC5
:101048000001786F78C063F0020E7FEC0DF0000E9F
:1010580083EC12F0020E0001746F040E736FBA0E67
:10106800E82EFED7732FFCD7742FFAD7000078C06C
:1010780063F0020E7FEC0DF0010E83EC12F0020E0D
:101088000001746F040E736FBA0EE82EFED7732F2B
:10109800FCD7742FFAD7000078C063F0020E7FECFB
:1010A8000DF02C0E0001646F7F0E656FCCEC10F014
:1010B80078C063F0020E7FEC0DF0020E83EC12F0A4
:1010C800020E0001746F040E736FBA0EE82EFED77D
:1010D800732FFCD7742FFAD7000078C063F0020E84
:1010E8007FEC0DF0030E83EC12F0020E0001746F1A
:1010F800040E736FBA0EE82EFED7732FFCD7742F29
:10110800FAD7000078C063F0020E7FEC0DF02C0EC9
:101118000001646F7F0E656FCCEC10F00001782B36
:10112800100E78659AEF08F09CEF08F026EF08F0AB
:10113800100E776F77C063F0010E7FEC0DF0040E90
:1011480083EC12F0020E0001746F040E736FBA0E76
:10115800E82EFED7732FFCD7742FFAD7000077C07C
:1011680063F0010E7FEC0DF0050E83EC12F0020E19
:101178000001746F040E736FBA0EE82EFED7732F3A
:10118800FCD7742FFAD7000077C063F0010E7FEC0C
:101198000DF0060E83EC12F0020E0001746F040EBF
:1011A800736FBA0EE82EFED7732FFCD7742FFAD7B9
:1011B800000077C063F0010E7FEC0DF0030E83ECA6
:1011C80012F0020E0001746F040E736FBA0EE82E4F
:1011D800FED7732FFCD7742FFAD7000077C063F0BF
:1011E800010E7FEC0DF02C0E0001646F7F0E656F11
:1011F800CCEC10F000017707050E776106EF09F0D7
:1012080008EF09F09EEF08F0030E796F79C063F0DC
:10121800010E7FEC0DF0000E83EC12F00001795105
:10122800FE0F636F010E7FEC0DF0070E83EC12F0DA
:10123800020E0001746F040E736FBA0EE82EFED70B
:10124800732FFCD7742FFAD7000079C063F0010E12
:101258007FEC0DF0010E83EC12F000017951FE0FC6
:10126800636F010E7FEC0DF0070E83EC12F0020E97
:101278000001746F040E736FBA0EE82EFED7732F39
:10128800FCD7742FFAD7000079C063F0010E7FEC09
:101298000DF02C0E0001646F7F0E656FCCEC10F022
:1012A80000017951FE0F636F010E7FEC0DF02C0EDB
:1012B8000001646F7F0E656FCCEC10F079C063F0AD
:1012C800010E7FEC0DF0020E83EC12F0020E00010D
:1012D800746F040E736FBA0EE82EFED7732FFCD707
:1012E800742FFAD7000000017951FE0F636F010EC9
:1012F8007FEC0DF0070E83EC12F079C063F0010E5D
:101308007FEC0DF0030E83EC12F000017951FE0F13
:10131800636F010E7FEC0DF0070E83EC12F0020EE6
:101328000001746F040E736FBA0EE82EFED7732F88
:10133800FCD7742FFAD7000079C063F0010E7FEC58
:101348000DF02C0E0001646F7F0E656FCCEC10F071
:1013580000017951FE0F636F010E7FEC0DF02C0E2A
:101368000001646F7F0E656FCCEC10F00001792BE3
:10137800130E7965C2EF09F0C4EF09F00AEF09F01E
:1013880048EC13F0120000016A6FD5EF0AF0000E66
:101398006B6F6B516425666F000E6521676F66C0C1
:1013A800F6FF67C0F7FF0800F55083EC12F0000164
:1013B8006B2B070E6B65E3EF09F0E5EF09F0CDEF56
:1013C80009F0F9EF0AF0080E6C6F6C516425666F2E
:1013D800000E6521676FF80E6625686FFF0E67219E
:1013E800696F68C0F6FF69C0F7FF0800F55083EC25
:1013F80012F000016C2B0F0E6C6505EF0AF007EF79
:101408000AF0E9EF09F0F9EF0AF0100E6D6F6D516F
:101418006425666F000E6521676FF00E6625686F9C
:10142800FF0E6721696F68C0F6FF69C0F7FF080003
:10143800F55083EC12F000016D2B170E6D6527EF48
:101448000AF029EF0AF00BEF0AF0F9EF0AF0180E8C
:101458006E6F6E516425666F000E6521676FE80E2A
:101468006625686FFF0E6721696F68C0F6FF69C05F
:10147800F7FF0800F55083EC12F000016E2B1F0EE9
:101488006E6549EF0AF04BEF0AF02DEF0AF0F9EF1D
:101498000AF0200E6F6F6F516425666F000E65218C
:1014A800676FE00E6625686FFF0E6721696F68C079
:1014B800F6FF69C0F7FF0800F55083EC12F0000151
:1014C8006F2B270E6F656BEF0AF06DEF0AF04FEF89
:1014D8000AF0F9EF0AF0280E706F70516425666FF4
:1014E800000E6521676FD80E6625686FFF0E6721AD
:1014F800696F68C0F6FF69C0F7FF0800F55083EC14
:1015080012F00001702B2F0E70658DEF0AF08FEF2F
:101518000AF071EF0AF0F9EF0AF0300E716F7151AD
:101528006425666F000E6521676FD00E6625686FAB
:10153800FF0E6721696F68C0F6FF69C0F7FF0800F2
:10154800F55083EC12F00001712B370E7165AFEF87
:101558000AF0B1EF0AF093EF0AF0F9EF0AF0380E4B
:10156800726F72516425666F000E6521676FC80E31
:101578006625686FFF0E6721696F68C0F6FF69C04E
:10158800F7FF0800F55083EC12F00001722B3F0EB4
:101598007265D1EF0AF0D3EF0AF0B5EF0AF0F9EF70
:1015A8000AF000016A51000AD8B4CBEF09F0010A29
:1015B800D8B4E7EF09F0030AD8B409EF0AF0010A32
:1015C800D8B42BEF0AF0070AD8B44DEF0AF0010A95
:1015D800D8B46FEF0AF0030AD8B491EF0AF0010A01
:1015E800D8B4B3EF0AF0F9EF0AF0120000016B511A
:1015F800D96EDA6ADECFF6FFDDCFF7FF0800F550C7
:10160800250AD8A40AEF0BF00CEF0BF0DDEF0BF076
:101618006B51D96EDA6ADE2A000EDD22000EA96F40
:10162800000EA86FA8C0C0F0AA69AB696B51D96E4B
:10163800DA6ADECF70F0DDCF71F070C0F6FF71C0EE
:10164800F7FF0800F550640AD8B42DEF0BF02FEF20
:101658000BF03DEF0BF070C0F6FF71C0F7FF08000C
:10166800F550690AD8A43BEF0BF03DEF0BF0D4EF2F
:101678000BF06C51D96EDA6A020EDF26DF5CD96E88
:10168800DA6ADECF72F0DECF73F0010E70256D6F6F
:10169800000E71216E6F6B51D96EDA6A6DC0DEFF74
:1016A8006EC0DDFF200E766F73BF5DEF0BF060EF4D
:1016B8000BF0010E61EF0BF0000E6F6F7607000E56
:1016C8007625D96EDA6A010EDA2272C060F073C02C
:1016D80061F0000E636F0A0E626FD7EC0FF060C006
:1016E80066F061C067F0BEEC12F000016651300F81
:1016F800DF6E72C060F073C061F0000E636F0A0E97
:10170800626F57EC0EF060C072F061C073F00001B8
:1017180072517311D8B493EF0BF095EF0BF09DEF66
:101728000BF07651D8A49BEF0BF09DEF0BF062EF16
:101738000BF07651D8B4A3EF0BF0A5EF0BF0C9EF7F
:101748000BF06F51D8B4ABEF0BF0ADEF0BF0C9EF66
:101758000BF07607000E7625D96EDA6A010EDA22CA
:101768002D0EDF6EC9EF0BF0000E7625D96EDA6A02
:10177800010EDA22DF506D6F6D51606F616B6AC0C8
:1017880062F01CEC0FF00001762B200E7619D8A41D
:10179800D0EF0BF0D2EF0BF0B8EF0BF0EEEF0BF051
:1017A80000016B51D96EDA6ADE2A000EDD22EEEFF7
:1017B8000BF06B51D96EDA6ADECFF6FFDDCFF7FF9B
:1017C8000800F550606F616B6AC062F01CEC0FF0A6
:1017D800D4EF0BF012000D50D96EDA6ADECFF6FFA7
:1017E800DDCFF7FF0800F550250AD8A4FEEF0BF06F
:1017F80000EF0CF0CEEF0CF00D50D96EDA6ADE2A4D
:10180800000EDD22000E0001A96F000EA86FA8C00F
:10181800C0F0AA69AB690D50D96EDA6ADECF12F052
:10182800DDCF13F012C0F6FF13C0F7FF0800F55024
:10183800640AD8B422EF0CF024EF0CF032EF0CF06D
:1018480012C0F6FF13C0F7FF0800F550690AD8A4C4
:1018580030EF0CF032EF0CF0C6EF0CF00E50D96EF2
:10186800DA6A020EDF26DF5CD96EDA6ADECF14F0A0
:10187800DECF15F0010E12240F6E000E1320106E2D
:101888000D50D96EDA6A0FC0DEFF10C0DDFF200EE2
:10189800186E15BE52EF0CF055EF0CF0010E56EF16
:1018A8000CF0000E116E1806000E1824D96EDA6AB4
:1018B800010EDA2214C002F015C003F0000E056E06
:1018C8000A0E046E30EC10F002C008F003C009F0F4
:1018D800D9EC12F00850300FDF6E14C002F015C0BA
:1018E80003F0000E056E0A0E046EBAEC0EF002C08C
:1018F80014F003C015F014501510D8B486EF0CF08E
:1019080088EF0CF090EF0CF01850D8A48EEF0CF084
:1019180090EF0CF057EF0CF01850D8B496EF0CF08D
:1019280098EF0CF0BBEF0CF01150D8B49EEF0CF010
:10193800A0EF0CF0BBEF0CF01806000E1824D96EBF
:10194800DA6A010EDA222D0EDF6EBBEF0CF0000E04
:101958001824D96EDA6A010EDA22DF500F6E0F50A2
:10196800026E036A0CC004F07AEC0FF0182A200EFD
:101978001818D8A4C2EF0CF0C4EF0CF0ABEF0CF0C1
:10198800DFEF0CF00D50D96EDA6ADE2A000EDD2288
:10199800DFEF0CF00D50D96EDA6ADECFF6FFDDCF3F
:1019A800F7FF0800F550026E036A0CC004F07AECE9
:1019B8000FF0C6EF0CF0120000016251D96EDA6A1E
:1019C800DF508C6E82A2EBEF0CF0EDEF0CF07EEFA7
:1019D8000DF060056111D8A4F4EF0CF0F6EF0CF0EF
:1019E8007EEF0DF001EF0DF01A0E0001656FF80E95
:1019F800E82EFED7652FFCD7000082B206EF0DF067
:101A080008EF0DF0F8EF0CF000016251D96EDA6AB8
:101A1800DE2A000EDD226451D96EDA6ADE06000E77
:101A2800DD5A6251D96EDA6A010EDBBE26EF0DF07F
:101A3800010EDB5009E10A0EDE5CD8A026EF0DF09E
:101A480028EF0DF07EEF0DF06251D96EDA6ADE6A8A
:101A5800DD6A6351D96EDA6ADE2A000EDD2251EFA3
:101A68000DF0070E8D6E7EEF0DF0020E8D6E7EEF7F
:101A78000DF0030E8D6E7EEF0DF0010E8D6E7EEF74
:101A88000DF0050E8D6E7EEF0DF0040E8D6E7EEF5F
:101A98000DF0000E8D6E7EEF0DF06351D96EDA6A8F
:101AA800DECF65F0DDCF66F06651000AD8B45FEF8F
:101AB8000DF035EF0DF06551000AD8B435EF0DF093
:101AC800010AD8B439EF0DF0030AD8B43DEF0DF090
:101AD800010AD8B441EF0DF0070AD8B445EF0DF06C
:101AE800010AD8B449EF0DF0030AD8B44DEF0DF050
:101AF80035EF0DF012000001646F00016405D8A4F1
:101B080088EF0DF08AEF0DF09CEF0DF063517F0F19
:101B1800676F67390F0B656F67510F0B666F6551FC
:101B280007EC13F00001665107EC13F0EDEF0DF030
:101B3800020E6419D8A4A3EF0DF0A5EF0DF0B7EFCE
:101B48000DF06351BF0F676F67390F0B656F6751F2
:101B58000F0B666F655107EC13F00001665107EC37
:101B680013F0EDEF0DF0030E6419D8A4BEEF0DF0DD
:101B7800C0EF0DF0D2EF0DF06351930F676F673927
:101B88000F0B656F67510F0B666F655107EC13F00C
:101B98000001665107EC13F0EDEF0DF0040E641927
:101BA800D8A4D9EF0DF0DBEF0DF0EDEF0DF0635198
:101BB800D30F676F67390F0B656F67510F0B666F30
:101BC800655107EC13F00001665107EC13F0EDEFD7
:101BD8000DF01200066E0604D8A4F5EF0DF0F7EF2D
:101BE8000DF008EF0EF005507F0F096E09380F0B46
:101BF800076E09500F0B086E07502AEC13F00850B7
:101C08002AEC13F056EF0EF0020E0618D8A40FEFC8
:101C18000EF011EF0EF022EF0EF00550BF0F096E17
:101C280009380F0B076E09500F0B086E07502AEC86
:101C380013F008502AEC13F056EF0EF0030E0618B6
:101C4800D8A429EF0EF02BEF0EF03CEF0EF0055064
:101C5800930F096E09380F0B076E09500F0B086EAA
:101C680007502AEC13F008502AEC13F056EF0EF048
:101C7800040E0618D8A443EF0EF045EF0EF056EF09
:101C88000EF00550D30F096E09380F0B076E095077
:101C98000F0B086E07502AEC13F008502AEC13F0CB
:101CA80056EF0EF01200000E0001656F63BF61EF82
:101CB8000EF05FEF0EF067EF0EF0626D631FD8B0A5
:101CC800632B010E656F61BF6EEF0EF06CEF0EF0C7
:101CD80074EF0EF0606D611FD8B0612B010E651BAB
:101CE800000E676F000E666F62516311D8B47FEF04
:101CF8000EF081EF0EF0A9EF0EF0010E646F89EF80
:101D08000EF0D89062376337642B63AF8EEF0EF016
:101D180090EF0EF085EF0EF0D89066376737625176
:101D2800605D63516159D8A09CEF0EF09EEF0EF0F4
:101D3800A3EF0EF06251605F6351615B6681D890DA
:101D480063336233642F90EF0EF06551D8B4AFEF70
:101D58000EF0B1EF0EF0B5EF0EF0666D671FD8B05C
:101D6800672B66C060F067C061F01200000E076E56
:101D780005BEC3EF0EF0C1EF0EF0C9EF0EF0046C14
:101D8800051ED8B0052A010E076E03BED0EF0EF06F
:101D9800CEEF0EF0D6EF0EF0026C031ED8B0032A79
:101DA800010E071A000E096E000E086E0450051089
:101DB800D8B4E1EF0EF0E3EF0EF00BEF0FF0010EE9
:101DC800066EEBEF0EF0D89004360536062A05AEFF
:101DD800F0EF0EF0F2EF0EF0E7EF0EF0D8900836C5
:101DE80009360450025C05500358D8A0FEEF0EF0E7
:101DF80000EF0FF005EF0FF00450025E0550035A94
:101E08000880D89005320432062EF2EF0EF0075003
:101E1800D8B411EF0FF013EF0FF017EF0FF0086CB5
:101E2800091ED8B0092A08C002F009C003F0120040
:101E380000016251D8B423EF0FF025EF0FF02DEF1A
:101E48000FF06251D8A42BEF0FF02DEF0FF032EF07
:101E58000FF060517CEC13F079EF0FF06251D96EFE
:101E6800DA6A0A0ED926DE50DE10D8B43EEF0FF03B
:101E780040EF0FF059EF0FF06251D96EDA6A0A0E8F
:101E8800D9266251E16EE26A030EE126DE50E65C75
:101E9800E650800A676FDE50800A6759D8B057EF5E
:101EA8000FF059EF0FF079EF0FF06251D96EDA6A3F
:101EB800030ED926DECF63F0DDCF64F06251D96E10
:101EC800DA6ADECF65F0DDCF66F063516525D96E3D
:101ED80064516621DA6E60C0DFFF6251D96EDA6A3A
:101EE800030ED926DE2A000EDD2212000450D8B4D3
:101EF80080EF0FF082EF0FF08AEF0FF00450D8A4B4
:101F080088EF0FF08AEF0FF08FEF0FF002507DECA3
:101F180013F0D6EF0FF00450D96EDA6A0A0ED926FC
:101F2800DE50DE10D8B49BEF0FF09DEF0FF0B6EF48
:101F38000FF00450D96EDA6A0A0ED9260450E16E01
:101F4800E26A030EE126DE50E65CE650800A096E7E
:101F5800DE50800A0958D8B0B4EF0FF0B6EF0FF092
:101F6800D6EF0FF00450D96EDA6A030ED926DECF09
:101F780005F0DDCF06F00450D96EDA6ADECF07F03F
:101F8800DDCF08F005500724D96E06500820DA6E18
:101F980002C0DFFF0450D96EDA6A030ED926DE2AA2
:101FA800000EDD221200000E0001656F61BFE1EF37
:101FB8000FF0DFEF0FF0E7EF0FF0606D611FD8B0A3
:101FC800612B010E656F63BFEEEF0FF0ECEF0FF0C2
:101FD800F2EF0FF0626D631FD8B0632B625163118B
:101FE800D8B4F9EF0FF0FBEF0FF01FEF10F0010E70
:101FF800646F03EF10F0D89062376337642B63AFD8
:1020080008EF10F00AEF10F0FFEF0FF06251605D7B
:1020180063516159D8A013EF10F015EF10F019EFC4
:1020280010F06251605F6351615BD8906333623333
:10203800642F0AEF10F06551D8B425EF10F027EFA0
:1020480010F02BEF10F0606D611FD8B0612B60C0ED
:1020580060F061C061F01200000E076E03BE39EF38
:1020680010F037EF10F03FEF10F0026C031ED8B0FD
:10207800032A010E076E05BE46EF10F044EF10F07C
:102088004AEF10F0046C051ED8B0052A045005105C
:10209800D8B451EF10F053EF10F077EF10F0010EB5
:1020A800066E5BEF10F0D89004360536062A05AEAA
:1020B80060EF10F062EF10F057EF10F00450025C80
:1020C80005500358D8A06BEF10F06DEF10F071EFCA
:1020D80010F00450025E0550035AD89005320432BD
:1020E800062E62EF10F00750D8B47DEF10F07FEFA6
:1020F80010F083EF10F0026C031ED8B0032A02C060
:1021080002F003C003F012009298929A9598959A5B
:10211800959C959E000E7FEC11F0340E0001636FC4
:10212800F10EE82EFED7632FFCD700D0030E07EC84
:1021380013F00D0E0001636FFB0EE82EFED7632F20
:10214800FCD700D0030E07EC13F01D0E0001636FDF
:10215800910EE82EFED7632FFCD7030E07EC13F081
:10216800020E07EC13F0020E07EC13F0080E07EC52
:1021780013F0000E07EC13F00C0E07EC13F0000E32
:1021880007EC13F0060E07EC13F048EC13F01200FE
:10219800000E0001696F000E686FEFEF10F000018C
:1021A80068516425666F69516521676F66C0F6FFDF
:1021B80067C0F7FFF86A070EF76403D00800F55008
:1021C80005D0F6CFE1FFF7CFE2FFE75083EC12F03E
:1021D8000001684B692B68516425666F6951652158
:1021E800676F66C0F6FF67C0F7FFF86A070EF76407
:1021F80003D00800F55005D0F6CFE1FFF7CFE2FF96
:10220800E7500009D8A40BEF11F00DEF11F0D3EF50
:1022180010F01200000E0B6E000E0A6E2EEF11F079
:102228000A500624086E0B500720096E08C0F6FFF6
:1022380009C0F7FFF86A070EF76403D00800F550E5
:1022480005D0F6CFE1FFF7CFE2FFE750A2EC12F09E
:102258000A4A0B2A0A500624086E0B500720096EFA
:1022680008C0F6FF09C0F7FFF86A070EF76403D045
:102278000800F55005D0F6CFE1FFF7CFE2FFE750B1
:102288000009D8A44AEF11F04CEF11F014EF11F047
:102298001200F20EF66E260EF76E000EF86E00EEC5
:1022A800E8F010EE06F00900F5CFEEFFE550E1503A
:1022B800FAE1FC0EF66E260EF76E000EF86E0900B7
:1022C800F5CF4EF001EE00F0340EEE6AE806FDE1BF
:1022D80000EEA8F0400EEE6AE806FDE100EE3FF0E1
:1022E8000F0EEE6AE806FDE14F904F92000EF86E71
:1022F8000001ECEF04F00001606F000160A187EFBE
:1023080011F089EF11F08CEF11F08C888DEF11F03E
:102318008C9860A392EF11F094EF11F097EF11F001
:102328008C8A98EF11F08C9A60A59DEF11F09FEFC1
:1023380011F0A2EF11F08C8CA3EF11F08C9C60A728
:10234800A8EF11F0AAEF11F0ADEF11F08C8EAEEFFF
:1023580011F08C9E1200026E02A0B5EF11F0B7EFDB
:1023680011F0BAEF11F08C88BBEF11F08C9802A233
:10237800C0EF11F0C2EF11F0C5EF11F08C8AC6EF73
:1023880011F08C9A02A4CBEF11F0CDEF11F0D0EF41
:1023980011F08C8CD1EF11F08C9C02A6D6EF11F0C5
:1023A800D8EF11F0DBEF11F08C8EDCEF11F08C9E82
:1023B800120078C07BF079C07CF0ECEF11F077C0A8
:1023C8006AF07B0E00016B6F7AC06CF0FAEC0AF0D1
:1023D8007BC0F6FF7CC0F7FF0800F5500009D8A4C1
:1023E800F8EF11F0FAEF11F0E3EF11F0000E000131
:1023F800786F000E776F1200810E0001836F7DC029
:1024080084F07EC085F0000E886F000E876F000E86
:102418008F6F000E8E6F840E776F7FC078F080C04C
:1024280079F0830E7A6FDDEC11F0000187517D257C
:10243800D96E88517E21DA6EDF6A12001AC01DF04B
:102448001BC01EF030EF12F019C00CF01D0E0D6EFF
:102458001CC00EF0EFEC0BF01DC0F6FF1EC0F7FF1E
:102468000800F5500009D8A43CEF12F03EEF12F036
:1024780028EF12F0000E1A6E000E196E1200230ECD
:10248800256E1FC026F020C027F0000E2A6E000E11
:10249800296E000E316E000E306E260E196E21C0A8
:1024A8001AF022C01BF0250E1C6E22EC12F02950E7
:1024B8001F24D96E2A502020DA6EDF6A1200060027
:1024C800F2A469EF12F06BEF12F081EF12F089B20B
:1024D80070EF12F073EF12F0010E74EF12F0000EAD
:1024E800FF0A016E014689500118FD0B0118896E1B
:1024F800850ED76EED0ED66EF2944F921100000144
:10250800636F000163510F0B616F6351F00B626FD2
:10251800898862390F0B7FEC11F0898A1A0EE82E30
:10252800FED700D0899A000161517FEC11F0898AA9
:102538001A0EE82EFED700D0899A1200056E0550B3
:102548000F0B036E0550F00B046E898804380F0BCF
:10255800AFEC11F0898A1A0EE82EFED700D0899ABE
:102568000350AFEC11F0898A1A0EE82EFED700D07E
:10257800899A1200000167BFC4EF12F0C6EF12F08B
:10258800CCEF12F066C066F067C067F0D8EF12F0C3
:1025980066C068F067C069F0681F691F684B692BDF
:1025A80068C066F069C067F0120009BEDEEF12F07D
:1025B800E0EF12F0E6EF12F008C008F009C009F0E9
:1025C800F2EF12F008C00AF009C00BF00A1E0B1E49
:1025D8000A4A0B2A0AC008F00BC009F012000001D1
:1025E80060516203F3CF64F0F4CF65F06051630388
:1025F800F350652761516203F350652764C060F0AA
:1026080065C061F012000001626F89980001625193
:102618007FEC11F0898A0B0E0001616F620EE82EC3
:10262800FED7612FFCD70000899A1200F28EF28C37
:10263800D08ED59EF28AF184D59CD59AD596D55060
:10264800F80B0409D56EF294D58E1200046E8998A1
:102658000450AFEC11F0898A0B0E036E620EE82E5F
:10266800FED7032EFCD700D0899A1200010E07EC82
:1026780013F00C0E07EC13F01200010E07EC13F028
:10268800080E07EC13F01200000E07EC13F0010E11
:1026980007EC13F01200040E07EC13F0000E07EC21
:1026A80013F01200000E07EC13F0020E07EC13F003
:1026B8001200000E07EC13F00C0E07EC13F01200DA
:1026C800000E07EC13F00F0E07EC13F01200000ECB
:1026D8002AEC13F0010E2AEC13F01200000E2AEC7B
:1026E80013F00F0E2AEC13F0120004050103020781
:0526F8001200120006B3
:107ED400000000001E18100000040E1F151F1F15BF
:107EE40000001C0603061C0000000C1E071E0C00EC
:107EF40000180E0601060E180000040E1F0E0400E2
:107F04000000060F1C0F06000000070C180C0700E9
:107F140000030E0C180C0E030020202020436F6E6B
:107F24007461646F7220202020002020202044658A
:107F3400205069657A617320202000202020426946
:107F4400656E76656E69646F732020006465736581
:107F54006120636F6E7461723F202000656D7065EF
:107F64007A616D6F7320656E20256400696E677297
:107F7400657365206E756D65726F006375616E74EF
:107F84006173207069657A617300566F6C766572EF
:107F940020616C206D656E750070756C7361206F67
:107FA4006B20706172610066616C74616E746573DC
:107FB40020256400646520302061203539202000AC
:107FC400636F6E746164617320256400456D72672C
:107FD400656E63696100506172616461204465008B
:107FE4007465726D696E61646F00696E76616C6947
:0B7FF400646F00636F6E74656F000027
:020000040030CA
:020002001F1EBF
:0200060081FF78
:00000001FF
